:100000000C9462000C940C0B0C94E50A0C948A007E
:100010000C948A000C948A000C948A000C948A0038
:100020000C948A000C948A000C948A000C948A0028
:100030000C948A000C948A000C948A000C948A0018
:100040000C947D0A0C948A000C948A000C948A000B
:100050000C948A000C948A000C948A000C948A00F8
:100060000C948A000C948A000000000024002700F1
:100070002A0000000000250028002B0000000000DE
:1000800023002600290004040404040404040202DA
:100090000202020203030303030301020408102007
:1000A0004080010204081020010204081020000012
:1000B0000008000201000003040700000000000027
:1000C0000000330B11241FBECFEFD8E0DEBFCDBF41
:1000D00011E0A0E0B1E0EEE8F9E102C005900D9278
:1000E000A630B107D9F722E0A6E0B1E001C01D9229
:1000F000A433B207E1F710E0C2E6D0E004C02197D4
:10010000FE010E948A0BC136D107C9F70E94D80AA6
:100110000C94C50C0C9400000895833069F028F409
:100120008130B1F08230C1F008958730C9F0883055
:10013000E9F0843001F506C0E0E8F0E080818F77D7
:1001400080830895E0E8F0E080818F7D80830895CA
:1001500084B58F7784BD089584B58F7D84BD08955F
:10016000E0EBF0E080818F7780830895E0EBF0E0B2
:1001700080818F7D80830895CF93DF93282F30E097
:10018000F901E255FF4F8491F901E656FF4FD491F2
:10019000F901EA57FF4FC491CC2389F081110E94E5
:1001A0008D00EC2FF0E0EE0FFF1FE458FF4FA591FC
:1001B000B491EC91ED2331F081E090E005C080E056
:1001C00090E002C080E090E0DF91CF9108951F930E
:1001D000CF93DF93282F30E0F901E255FF4F849150
:1001E000F901E656FF4F1491F901EA57FF4FC49108
:1001F000CC23D1F0D62F81110E948D00EC2FF0E09E
:10020000EE0FFF1FEE58FF4FA591B4918FB7F894F2
:10021000D11106C09C91E12FE095E923EC9303C036
:10022000EC91E12BEC938FBFDF91CF911F9108955B
:10023000CF93DF9390E0FC01E656FF4F2491FC0141
:10024000EA57FF4F8491882379F190E0880F991F36
:10025000FC01E859FF4FA591B491FC01EE58FF4F06
:10026000C591D49161110CC09FB7F8948C91E22F85
:10027000E0958E238C932881E223E8839FBF14C0EE
:10028000623061F49FB7F8948C91322F30958323BC
:100290008C93E881E22BE8839FBF06C08FB7F89468
:1002A000EC91E22BEC938FBFDF91CF91089578947E
:1002B00084B5826084BD84B5816084BD85B582606B
:1002C00085BD85B5816085BDEEE6F0E08081816009
:1002D0008083E1E8F0E01082808182608083808109
:1002E00081608083E0E8F0E0808181608083E1EBE1
:1002F000F0E0808184608083E0EBF0E080818160C9
:100300008083EAE7F0E0808184608083808182607E
:100310008083808181608083808180688083109267
:10032000C10008953FB7F894809130029091310256
:10033000A0913202B091330226B5A89B05C02F3F91
:1003400019F00196A11DB11D3FBFBA2FA92F982FFB
:100350008827820F911DA11DB11DBC01CD01660F23
:10036000771F881F991F660F771F881F991F089591
:100370008F929F92AF92BF92CF92DF92EF92FF92B5
:100380006B017C010E9492014B015C011DC021E0C8
:10039000C21AD108E108F10888EE880E83E0981EA1
:1003A000A11CB11CC114D104E104F10469F00E9444
:1003B0009201DC01CB0188199909AA09BB09883E81
:1003C0009340A105B10518F7C114D104E104F1046B
:1003D00049F7FF90EF90DF90CF90BF90AF909F9044
:1003E0008F9008952FB7F89460912C0270912D0290
:1003F00080912E0290912F022FBF08950895823090
:1004000020F5E82FF0E0EE0FFF1FEE5FFE4F718347
:100410006083882319F0813059F00895E9E6F0E00F
:1004200080818C7F482B40838DB381608DBB089584
:10043000E9E6F0E08081440F551F440F551F837F8C
:10044000482B40838DB382608DBB089508954F92F1
:100450005F926F927F928F929F92AF92BF92CF9254
:10046000DF92EF92FF920F931F93CF93DF93CDB75D
:10047000DEB762970FB6F894DEBF0FBECDBF9E8386
:100480008D8320919F013091A001A3ECB6EE0E94D4
:10049000730B0024880F991F001C880F991F001CE4
:1004A000892F902D6C01E12CF12CA0910001B091CD
:1004B0000101A70196010E94820B0E94CA0B2AE04B
:1004C00037ED43E25CE30E94300C0E949B0BDC01A1
:1004D000CB0121E030E019821A821B821C820D813F
:1004E0001E812017310708F0F3C0F901EE0FFF1F3E
:1004F000E156FE4F4081518160E070E046015701B6
:10050000880C991CAA1CBB1C880C991CAA1CBB1C1F
:1005100024013501481A590A6A0A7B0A441655060D
:100520006606770608F063C0880E991EAA1EBB1ED9
:10053000481559056A057B0508F059C0F90131963F
:10054000EE0FFF1FE156FE4F0190F081E02D2F01CD
:10055000612C712C4D825E826F8278864601570134
:10056000880C991CAA1CBB1C24013501440C551C89
:10057000661C771C440C551C661C771C840C951C4F
:10058000A61CB71C240135014C0C5D1C6E1C7F1C85
:100590004F86588A698A7A8A481A590A6A0A7B0AEF
:1005A0008D809E80AF80B884481459046A047B040F
:1005B000F0F48F849888A988BA88880E991EAA1E9C
:1005C000BB1E4D805E806F807884481459046A0495
:1005D0007B0468F469807A808B809C80660C771C31
:1005E000881C991C69827A828B829C826EC046012B
:1005F0005701880C991CAA1CBB1C880C991CAA1CAE
:10060000BB1C880C991CAA1CBB1C8C0C9D1CAE1C12
:10061000BF1C24013501481A590A6A0A7B0A44168C
:1006200055066606770608F04BC0880E991EAA1E6E
:10063000BB1E481559056A057B0508F041C0F90144
:100640003196EE0FFF1FE156FE4F80809180A12C66
:10065000B12CB701A601440F551F661F771F4C0D23
:100660005D1D6E1D7F1D2A013B01440C551C661C3F
:10067000771CB301A201481B590B6A0B7B0B481571
:1006800059056A057B05E0F4480E591E6A1E7B1E5B
:1006900084149504A604B70498F449815A816B81A7
:1006A0007C814F5F5F4F6F4F7F4F4A015B01880C2A
:1006B000991CAA1CBB1C89829A82AB82BC8205C091
:1006C000980119821A821B821C822E5F3F4F09CF2C
:1006D00089819A81AB81BC81B695A79597958795BD
:1006E0000730110540F08093970190939801A093F3
:1006F0009901B0939A010097A105B10529F0892BC2
:100700008A2B8B2B19F403C080E001C081E0629634
:100710000FB6F894DEBF0FBECDBFDF91CF911F9112
:100720000F91FF90EF90DF90CF90BF90AF909F9090
:100730008F907F906F905F904F9008952F923F928F
:100740004F925F926F927F928F929F92AF92BF92E1
:10075000CF92DF92EF92FF920F931F93CF93DF938D
:10076000CDB7DEB762970FB6F894DEBF0FBECDBF30
:100770001C0120919F013091A001ADECBCEC0E94C6
:10078000730B9695879596958795969587952C01E9
:10079000612C712CA0910001B0910101A301920183
:1007A0000E94820B0E94CA0B2AE037ED43E25CE311
:1007B0000E94300C0E949B0BAB01BC0101E010E0D9
:1007C00019821A821B821C821A87098729853A8519
:1007D0002215330508F0BDC0F901EE0FFF1FE156E9
:1007E000FE4F80819181A0E0B0E093018201041B63
:1007F000150B260B370B081719072A073B0708F0BC
:1008000054C073016201C40ED51EE61EF71E8C157E
:100810009D05AE05BF0508F048C0E985FA8531960B
:10082000EE0FFF1FE156FE4F0190F081E02D4F01CA
:10083000A12CB12C8B869C86AD86BE8663015201AD
:10084000AA0CBB1CCC1CDD1CAF86B88AC98ADA8A0C
:10085000A41AB50AC60AD70A45015601CB84DC841E
:10086000ED84FE848C149D04AE04BF04F0F4CF84A8
:10087000D888E988FA88C40ED51EE61EF71E8B8438
:100880009C84AD84BE848C149D04AE04BF0468F4C3
:10089000A980BA80CB80DC80AA0CBB1CCC1CDD1CE0
:1008A000A982BA82CB82DC824DC073016201CC0C7A
:1008B000DD1CEE1CFF1C46015701841A950AA60A8E
:1008C000B70A88169906AA06BB06B0F5C40ED51E4F
:1008D000E61EF71E8C159D05AE05BF0568F5E9857A
:1008E000FA853196EE0FFF1FE156FE4F8081918110
:1008F000A0E0B0E0081719072A073B07E8F49301C6
:100900008201040F151F261F371F80179107A207AA
:10091000B30790F489819A81AB81BC810196A11DB6
:10092000B11D6C017D01CC0CDD1CEE1CFF1CC982CD
:10093000DA82EB82FC8206C03A86298619821A8204
:100940001B821C8209851A850E5F1F4F1A87098733
:100950003DCF89819A81AB81BC81B695A79597954A
:10096000879517E02116310440F08093970190930A
:100970009801A0939901B0939A010097A105B10540
:1009800029F0892B8A2B8B2B19F403C080E001C03E
:1009900081E062960FB6F894DEBF0FBECDBFDF9147
:1009A000CF911F910F91FF90EF90DF90CF90BF906C
:1009B000AF909F908F907F906F905F904F903F90FF
:1009C0002F9008952F923F924F925F926F927F9255
:1009D0008F929F92AF92BF92CF92DF92EF92FF924F
:1009E0000F931F93CF93DF93CDB7DEB762970FB608
:1009F000F894DEBF0FBECDBF1C0140919F01509106
:100A0000A0019A01A3E4B8E00E94730B481B590BA4
:100A1000569547956C01C40ED51ED694C794D694AE
:100A2000C794D694C794D694C794E12CF12CA09186
:100A30000001B0910101A70196010E94820B0E9462
:100A4000CA0B2AE037ED43E25CE30E94300C0E94BF
:100A50009B0B2B013C0101E010E019821A821B82E2
:100A60001C821A87098729853A852215330508F0E3
:100A7000C4C0F901EE0FFF1FE156FE4F8081918146
:100A8000A0E0B0E0B701A60144195509660977094D
:100A9000481759076A077B0708F057C09701860176
:100AA000040D151D261D371D80179107A207B307DA
:100AB00008F04BC0E985FA853196EE0FFF1FE1562D
:100AC000FE4F208131814901A12CB12C8B869C865F
:100AD000AD86BE8697018601000F111F221F331FAE
:100AE000480159018C0C9D1CAE1CBF1C8F86988A36
:100AF000A98ABA8A84189508A608B7080B851C85A8
:100B00002D853E8580169106A206B306F0F40F856A
:100B1000188929893A89040D151D261D371D8B84D6
:100B20009C84AD84BE8480169106A206B30668F448
:100B300009811A812B813C81000F111F221F331F55
:100B400009831A832B833C8351C097018601000FD0
:100B5000111F221F331F0C0D1D1D2E1D3F1D48018F
:100B6000590184189508A608B70888169906AA0698
:100B7000BB06B0F5040D151D261D371D8017910706
:100B8000A207B30768F5E985FA853196EE0FFF1FD6
:100B9000E156FE4F80819181A0E0B0E048175907EF
:100BA0006A077B07E8F4B701A601440D551D661DD1
:100BB000771D84179507A607B70790F489819A8156
:100BC000AB81BC810196A11DB11D9C01AD01220F1D
:100BD000331F441F551F29833A834B835C8306C010
:100BE0003A86298619821A821B821C8249855A8577
:100BF0004E5F5F4F5A87498736CF89819A81AB8193
:100C0000BC81B695A7959795879557E02516310431
:100C100040F08093970190939801A0939901B0932D
:100C20009A010097A105B10529F0892B8A2B8B2BFE
:100C300019F403C080E001C081E062960FB6F89419
:100C4000DEBF0FBECDBFDF91CF911F910F91FF90FF
:100C5000EF90DF90CF90BF90AF909F908F907F905C
:100C60006F905F904F903F902F900895CF92DF92BA
:100C7000EF92FF920E9492016B017C01809127020A
:100C8000909128029601281B390BC9013093260246
:100C900020932502893833E1930708F440C020915E
:100CA0009F013091A001A901485C510948175907DB
:100CB000B0F528533F4F8217930788F520919D0187
:100CC00030919E012F5F3F4F30939E0120939D01F5
:100CD00080919B0190919C01019790939C0180933E
:100CE0009B0122303105B1F40E94E20481110EC053
:100CF00080919B0190919C010E949E03811106C0EE
:100D000080919B0190919C010E94270210929E016C
:100D100010929D0110929C0110929B0107C089388E
:100D2000934120F010929C0110929B0180919B01B5
:100D300090919C018334910540F010929C01109297
:100D40009B0110929E0110929D0180919B019091B8
:100D50009C019C012F5F3F4F30939C0120939B018E
:100D6000880F991FFC01E156FE4F8091250290915A
:100D7000260291838083C0922702D0922802E092BB
:100D80002902F0922A02FF90EF90DF90CF90089511
:100D900060919701709198018091990190919A01C9
:100DA0000895109297011092980110929901109253
:100DB0009A0108954091970150919801609199018D
:100DC00070919A0181E0452B462B472B09F480E076
:100DD0000895FC01208131812F3F3F4F81F0FC01BC
:100DE00010929701109298011092990110929A0115
:100DF00041E050E066E376E080810E94FF010895C3
:100E0000FC01718360830E94E906089570930101DB
:100E1000609300010895FC01778366830895FC01C7
:100E2000758364830895FC0160876130710529F43E
:100E30006EE571E00E940F0708956230710529F494
:100E40006AE872E00E940F0708956330710521F48B
:100E500064E670E00E940F0708950F931F93CF93ED
:100E6000DF93EC010FEF1FEF1B830A836EE571E048
:100E70000E940F076AE070E0CE010E940B0761E05C
:100E800070E0CE010E941307198308836CE370E0C1
:100E9000CE010E94060710929701109298011092BD
:100EA000990110929A01DF91CF911F910F910895AE
:100EB0008F929F92AF92BF92CF92DF92EF92FF926A
:100EC0000F931F93CF93DF93EC01162F0E94F20133
:100ED0002DA53EA52115310561F4112309F421C189
:100EE00021E030E03EA72DA76FA778AB89AB9AAB86
:100EF00018C12130310509F06BC0111119C0CFA400
:100F0000D8A8E9A8FAA89B01AC012C193D094E0903
:100F10005F0969017A012A813B814901A12CB12C29
:100F2000C814D904EA04FB0418F41EA61DA6F9C0CF
:100F3000111109C022E030E03EA72DA76BAB7CABBE
:100F40008DAB9EABEEC01123E1F10FA518A929A925
:100F50003AA96B017C01C01AD10AE20AF30A2E8178
:100F60003F81890120E030E00C151D052E053F056D
:100F700040F56BAB7CAB8DAB9EAB81E08A87EF8994
:100F8000F88D309709F00995EB8DFC8D309709F0BD
:100F90000995ED8DFE8D309719F08F8D98A10995EB
:100FA000EFA1F8A5309709F00995E9A5FAA53097C2
:100FB00019F08BA59CA5099586E090E09EA78DA7CA
:100FC000B0C0E98DFA8D309709F4ABC00995A9C07E
:100FD0002230310509F04EC029893A89232B21F4AA
:100FE0002B893C89232BB1F0CFA4D8A8E9A8FAA873
:100FF0009B01AC012C193D094E095F0969017A0179
:101000002C813D814901A12CB12C8C149D04AE048E
:10101000BF0478F4EB85FC85309709F00995ED85E0
:10102000FE85309719F08F85988909951EA61DA613
:1010300078C0112309F475C00BA91CA92DA93EA9DC
:101040006B017C01C01AD10AE20AF30A2A813B81B2
:10105000890120E030E00C151D052E053F0508F044
:1010600060C023E030E03EA72DA76FA778AB89AB27
:101070009AAB57C02330310549F5111152C00FA565
:1010800018A929A93AA96B017C01C01AD10AE20A60
:10109000F30A2A813B81890120E030E00C151D050F
:1010A0002E053F05F0F56BAB7CAB8DAB9EABE989B4
:1010B000FA89309709F00995EB89FC89309719F086
:1010C0008D899E8909951EA61DA62BC02630310547
:1010D00041F5111114C01A866BAB7CAB8DAB9EAB86
:1010E000E9A1FAA1309709F00995EBA1FCA130978D
:1010F00019F08DA19EA109951EA61DA612C06BAB6D
:101100007CAB8DAB9EAB81E08A87EFA1F8A53097D1
:1011100009F00995E9A5FAA5309719F08BA59CA5CA
:101120000995DF91CF911F910F91FF90EF90DF9084
:10113000CF90BF90AF909F908F900895CF93DF9303
:10114000FC0120813181332374F0EC01822F0E9455
:10115000BC002885398561E08217930709F060E0BB
:10116000CE010E945807DF91CF910895FC01728B48
:10117000618B0895FC01862FA2E3B0E0B383A283C4
:10118000A8E5B2E0B583A483A8EEB3E0B783A68355
:1011900012861486138616861586108A1786128A7A
:1011A000118A148A138A168A158A108E178A128E4B
:1011B000118E148E138E168E158E10A2178E12A2FB
:1011C00011A214A213A210A617A212A611A614A669
:1011D00013A616A615A660837183442319F0118601
:1011E000108604C041E050E051874087222321F05F
:1011F00062E00E941801089560E00E9418010895BD
:10120000019779F46F3F7F4F61F48EE891E00E947F
:101210002D0721E041E065E070E087E591E00E9464
:10122000BA080895AB01BC0120E030E0809156017E
:1012300090E0281739079CF4F901EE0FFF1FEE0F1D
:10124000FF1FEA5FFE4F80819181A281B3818417E5
:101250009507A607B70729F02F5F3F4FE7CF81E03B
:10126000089580E0089587E591E00E949E088EE849
:1012700091E00E94DA068823D1F08EE891E00E9486
:10128000C8060E94120981110EC061E08DE00E9423
:10129000E70060E375E780E090E00E94B80160E05D
:1012A0008DE00E94E7008EE891E00E94D10608954B
:1012B000CF93DF93C0E0D0E08091560190E0C81753
:1012C000D907B4F4CE01C296880F991F880F991FD1
:1012D00001960E94420BFE01EE0FFF1FEE0FFF1F53
:1012E000EA5FFE4F60837183828393832196E4CF0C
:1012F000DF91CF910895CF93DF9362E085E00E9464
:10130000180161E086E00E94180161E08DE00E9412
:10131000180185E00E94BC00892B49F560ED77E05B
:1013200080E090E00E94B80185E00E94BC00892B1B
:10133000F1F46FEF88EC90E00E94480B1092560198
:10134000C0E0D0E0C233D10594F48DE00E94BC002F
:1013500061E0892B09F060E08DE00E94E70060E524
:1013600070E080E090E00E94B8012196EBCF88EC1D
:1013700090E00E943A0B80935601853138F060E08E
:1013800088EC90E00E94480B109256010E94580988
:1013900060E070E08EE891E00E94000767ED79E080
:1013A00087E591E00E94B608DF91CF910895CF9232
:1013B000DF92EF92FF92CF93DF93809156018431B9
:1013C00078F061E08DE00E94E70068EB7BE080E070
:1013D00090E00E94B80160E08DE00E94E70086C0C6
:1013E00064EF71E080E090E00E94B801C0E0D0E0DE
:1013F0008091560190E0C817D907B4F461E08DE000
:101400000E94E7006AEF70E080E090E00E94B8017F
:1014100060E08DE00E94E7006AEF70E080E090E01D
:101420000E94B8012196E4CF68EE73E080E090E07E
:101430000E94B8010E94F2016B017C010E94F2013E
:10144000DC01CB018C199D09AE09BF098838934195
:10145000A105B10508F046C08EE891E00E94DA06C9
:10146000882379F18EE891E00E94C8066B017C0127
:101470000E9412098823D1F0609156016F5F88ECB9
:1014800090E00E94480B809156018F5F8093560137
:1014900090E00197880F991F880F991FB701A60147
:1014A00087539F4F0E94560B0E94580964EF71E0CA
:1014B00080E090E00E94B8018EE891E00E94D106A1
:1014C00011C08DE00E94BC0061E0892B09F060E052
:1014D0008DE00E94E70062E370E080E090E00E940F
:1014E000B801ACCF60E08DE00E94E700DF91CF91C2
:1014F000FF90EF90DF90CF9008951F920F920FB65C
:101500000F9211240F931F932F933F934F935F9349
:101510006F937F938F939F93AF93BF9300912C0210
:1015200010912D0220912E0230912F0290912B02CA
:10153000B901A8014F5F5F4F6F4F7F4F83E0890F65
:101540008D3740F086E8890FB901A8014E5F5F4FE3
:101550006F4F7F4F80932B0240932C0250932D02AC
:1015600060932E0270932F0280913002909131028D
:10157000A0913202B09133020196A11DB11D80935A
:10158000300290933102A0933202B0933302BF91A4
:10159000AF919F918F917F916F915F914F913F910B
:1015A0002F911F910F910F900FBE0F901F901895C4
:1015B0000E9457010E947B090E94330980E090E05D
:1015C000892BD1F30E940000F7CF1F920F920FB624
:1015D0000F9211242F933F934F935F936F937F93B9
:1015E0008F939F93AF93BF93EF93FF93E091040189
:1015F000F09105010995FF91EF91BF91AF919F91F6
:101600008F917F916F915F914F913F912F910F90AB
:101610000FBE0F901F9018951F920F920FB60F924A
:1016200011242F933F934F935F936F937F938F93E7
:101630009F93AF93BF93EF93FF93E0910201F091DB
:1016400003010995FF91EF91BF91AF919F918F9108
:101650007F916F915F914F913F912F910F900FBEAE
:101660000F901F9018956FEF7FEF81E090E00E9440
:1016700000090895F999FECF92BD81BDF89A992786
:1016800080B50895A6E1B0E044E050E00C94650B0D
:10169000262FF999FECF1FBA92BD81BD20BD0FB68E
:1016A000F894FA9AF99A0FBE01960895242F0E9491
:1016B000490B252F0E94490B0C945E0B0E94480B8E
:1016C000272F0C94490BDC01CB01FC01F999FECFCB
:1016D00006C0F2BDE1BDF89A319600B40D924150BA
:1016E0005040B8F70895A29FB001B39FC001A39FD7
:1016F000700D811D1124911DB29F700D811D11244B
:10170000911D0895B7FF0C94900B0E94900B821BC3
:10171000930B0895EE0FFF1F0590F491E02D0994AF
:101720000E94730BA59F900DB49F900DA49F800DF8
:10173000911D112408950E940F0C88F09F5798F076
:10174000B92F9927B751B0F0E1F0660F771F881FC6
:10175000991F1AF0BA95C9F714C0B13091F00E94E0
:10176000290CB1E008950C94290C672F782F882755
:10177000B85F39F0B93FCCF3869577956795B39507
:10178000D9F73EF490958095709561957F4F8F4F76
:101790009F4F0895E89409C097FB3EF4909580957B
:1017A000709561957F4F8F4F9F4F9923A9F0F92F27
:1017B00096E9BB279395F695879577956795B795A5
:1017C000F111F8CFFAF4BB0F11F460FF1BC06F5F8B
:1017D0007F4F8F4F9F4F16C0882311F096E911C09D
:1017E000772321F09EE8872F762F05C0662371F0BE
:1017F00096E8862F70E060E02AF09A95660F771FD2
:10180000881FDAF7880F9695879597F9089557FD01
:101810009058440F551F59F05F3F71F04795880F5E
:1018200097FB991F61F09F3F79F0879508951216F5
:1018300013061406551FF2CF4695F1DF08C01616A1
:1018400017061806991FF1CF869571056105089452
:101850000895E894BB2766277727CB0197F9089569
:101860000E94430C0C94B40C0E94A60C38F00E9409
:10187000AD0C20F0952311F00C949D0C0C94A30C4E
:1018800011240C942A0C0E94070C70F3959FC1F34D
:10189000950F50E0551F629FF001729FBB27F00D1E
:1018A000B11D639FAA27F00DB11DAA1F649F662773
:1018B000B00DA11D661F829F2227B00DA11D621FC2
:1018C000739FB00DA11D621F839FA00D611D221F7C
:1018D000749F3327A00D611D231F849F600D211D60
:1018E000822F762F6A2F11249F5750409AF0F1F0E3
:1018F00088234AF0EE0FFF1FBB1F661F771F881F4C
:1019000091505040A9F79E3F510580F00C949D0CDA
:101910000C942A0C5F3FE4F3983ED4F386957795B8
:101920006795B795F795E7959F5FC1F7FE2B880FF1
:10193000911D9695879597F9089597F99F6780E887
:1019400070E060E008959FEF80EC089500240A9411
:101950001616170618060906089500240A9412168A
:101960001306140605060895092E0394000C11F4BD
:10197000882352F0BB0F40F4BF2B11F460FF04C06A
:0E1980006F5F7F4F8F4F9F4F0895F894FFCFFA
:06198E003C0026022602C7
:00000001FF
